S0100000736561686F7273652E73726563BA
S113000045C0000061C000005FC000005DC000008A
S11300105BC0000059C0000057C0000055C000007C
S113002053C0000051C000004FC000004DC000008C
S11300304BC0000049C0000047C000005CC600007F
S113004043C0000041C000003FC000003DC00000AC
S11300503BC0000039C0000037C0000035C00000BC
S113006033C0000031C000002FC000002DC00000CC
S11300702BC0000029C0000027C0000025C00000DC
S113008023C0000021C000001FC0000011241FBEB7
S1130090CFEFD0E1DEBFCDBF17E0A0E0B1E0E8EDE7
S11300A0F8E100E00BBF02C007900D92A03DB1073C
S11300B0D9F72CE0A0EDB7E001C01D92AB36B20732
S11300C0E1F713D60C946A0C9BCF83B7886083BF87
S11300D083B7846083BF12BE89EF81BF87B7826014
S11300E087BF08951BBA8FEF8ABB9EEF98BB97BB5F
S11300F015BA90EF94BB91E892BB90E891BB13B80A
S113010082B910926200109261000895F894DDDFC4
S1130110E9DF90D798D678940895AF92BF92CF92A2
S1130120DF92EF92FF920F931F93CF93DF930F2EE3
S1130130FCEDAF2EF1E0BF2EF02DD0E00F2EFFE549
S1130140CF2EF8E0DF2EF02D0F2EF1E6EF2EF8E0A3
S1130150FF2EF02D16C0F8018081813039F4F601AC
S113016060816D0FF70180818C0FDCD7005F1F4F1A
S1130170CF5FCE3181F7DF5FFFEFAF1ABF0AD03117
S113018019F08501C0E0E7CFDF91CF911F910F9166
S1130190FF90EF90DF90CF90BF90AF900895BF9203
S11301A0CF92DF92EF92FF920F931F93CF93DF933F
S11301B080914E0890914F08019690934F08809338
S11301C04E080E940E0C67E370E00E94A50BE82E17
S11301D00E940E0C63E770E00E94A50BF82E0F2E10
S11301E0F4E0CF2EF1E0DF2EF02D0F2EF6E0BF2E3F
S11301F0F02DB80ED6E0DE0D12C0F80190819130DA
S113020019F46F2D8C2F8ED70A5F1F4FCF5FCD133C
S1130210F4CFF394FFEFCF1ADF0AFB1419F0CE2DBD
S11302208601EBCFDF91CF911F910F91FF90EF905B
S1130230DF90CF90BF900895EF92FF920F931F939A
S1130240CF93DF930F2EF8E2EF2EF1E0FF2EF02D87
S1130250DDE312C0F8018081813019F46D2F8C2FF9
S113026061D70A5F1F4FCF5FCE31A1F7DF5FFFEF8A
S1130270EF1AFF0AD33419F08701C0E0EBCFDF9106
S1130280CF911F910F91FF90EF900895EF92FF92FD
S11302900F931F93CF93DF938091F6079091F70705
S11302A044977CF50E940E0C7C010E940E0CEC011C
S11302B02091F6073091F707F901EE0FFF1F8F0128
S11302C0005E174FC7016BE370E00E94A50B019617
S11302D0D8018D939C93E850F84FCE0169E770E004
S11302E00E94A50B019691838083F901EE51F84F8A
S11302F0808181E080832F5F3F4F3093F707209305
S1130300F607DF91CF911F910F91FF90EF90089521
S113031024E0260F44E0480F79C70895EF92FF9236
S11303200F931F93CF93DF9383E094D59C0136956D
S11303302795A5E2B9E40E94B80B9695879590930A
S113034066088093650884E085D59695879596958B
S11303508795969587959093640880936308209178
S11303606508309166082333310578F180915F0880
S11303709091600818161906CCF4019790936008C0
S113038080935F0880914808811110C0E8E4F8E088
S113039081E0808311821282138280914C089091B3
S11303A04D08019690934D0880934C0880915F0806
S11303B090916008892B09F09BC08091D807811126
S11303C097C081E08093D60793C02431310580F52E
S11303D080915F089091600880379105CCF4019674
S11303E09093600880935F0880914908811110C040
S11303F0E8E4F8E0108281E0818312821382809124
S11304004C0890914D08019690934D0880934C08A8
S113041080915F08909160088037910509F068C069
S11304208091D807811164C081E08093D60760C0B1
S11304308B35910570F18091610890916208823248
S11304409105CCF4019690936208809361088091A1
S11304504A08811110C0E8E4F8E01082118281E0BA
S11304608283138280914C0890914D080196909359
S11304704D0880934C08809161089091620882979E
S1130480B9F58091D807811133C081E08093D607F4
S11304902FC0449768F580916108909162081816FE
S11304A01906CCF4019790936208809361088091B7
S11304B04B08811110C0E8E4F8E010821182128226
S11304C081E0838380914C0890914D08019690932C
S11304D04D0880934C088091610890916208892BA3
S11304E039F48091D807811103C081E08093D60745
S11304F08FD57AD612DE809157088823C9F09CDE06
S113050017C0FE01EE51F84F8081882339F0F701BE
S113051060817181F80180819181FADE2196F2E097
S1130520EF0EF11C0E5F1F4FC431D10551F70BC004
S11305300F2EF8EFEF2EF7E0FF2EF02D00E218E07B
S1130540C0E0D0E0DECFDF91CF911F910F91FF90FB
S1130550EF9008950F931F93CF93DF9380915008EA
S113056090915108019690935108809350080E94ED
S11305700E0C64E670E00E94A50B8C01065F1F4F11
S1130580CCE3D1E0D093D40743E0602F8C2F6CD61A
S11305902FE58AEE90E0215080409040E1F700C0C2
S11305A00000BCDE87EA91E60197F1F700C0000085
S11305B02FD51AD6C15031F71092D407DF91CF91BD
S11305C01F910F91089538DE80915F089091600823
S11305D0CD97079758F480916108909162084F97DE
S11305E028F48099FECF89E08093D6070895EF928E
S11305F0FF920F931F93CF93DF938091F60790910F
S1130600F70701979093F7078093F6072091E00787
S11306103091E1072F5F3F4F3093E1072093E007CC
S11306209C01220F331FF901E05EF74F1182108203
S1130630F901E850F84F11821082FC01EE51F84F95
S11306401082E6D4D1D5C8EFD7E000E218E00F2E2F
S1130650F0E2EF2EF8E0FF2EF02D69917991F80188
S1130660819191918F0154DECE15DF05B1F70E947F
S11306700E0C6AE070E00E94A50B892B39F480917E
S1130680DE07811103C087E08093D607DF91CF9105
S11306901F910F91FF90EF900895109262081092AD
S11306A061081092600810925F0880E0D3D39C0127
S11306B0ADECBCEC0E94B80B969587959695879502
S11306C0969587959093D1078093D0072FE382E482
S11306D09FE0215080409040E1F700C0000098D492
S11306E083D547E955E060E080E0F0D44BEA55E07B
S11306F060E081E0EBD447E955E060E082E0E6D4D5
S11307004EEB55E060E084E0E1D407DD8099FECF54
S11307100895DF92EF92FF920F931F93CF93DF938D
S11307201092E1071092E0071092F7071092F60773
S113073010924D0810924C081092510810925008D3
S113074010924F0810924E0890915C0881E089271E
S113075080935C088EE190E0909362088093610836
S11307609093600880935F0811E0C7EDD7E002E042
S11307700F2EF3E0DF2EF02D6894EE24E2F80F2E16
S1130780F5E0FF2EF02D81990AC080DD2FE382E48D
S11307909FE0215080409040E1F700C00000829922
S11307A00BC025DFBBDD2FE382E49FE021508040B6
S11307B09040E1F700C00000839BCCDE84990AC01E
S11307C0EEDC2FE382E49FE0215080409040E1F78B
S11307D000C0000080915D08882331F09FDD809186
S11307E05D08812780935D08809157088111EBDEB5
S11307F080915208882339F08A81811104C00093C2
S1130800D607109252088091E0079091E1070F9764
S113081029F48B81811102C0D092D6078091F6070A
S11308209091F707099729F48C81811102C0E09215
S1130830D60780914C0890914D08449729F48D81F6
S1130840811102C0F092D60780915008909151080E
S1130850039769F48E8181110AC086E08093D607DC
S113086080914E0890914F080A9799F419C080918D
S11308704E0890914F080A9739F48885811104C075
S113088088E08093D60705C08091D607882309F4B1
S11308907ACF90915C0881E0892780935C0805C039
S11308A08091DF07882361F3F4CFDF91CF911F910B
S11308B00F91FF90EF90DF90089517D38FEF87BBD0
S11308C018BA8091D507811107C08EEF90E09093FC
S11308D0D3078093D2070AC08091D2079091D3079F
S11308E0880F991F9093D3078093D2078091D207E2
S11308F088BB0895CF93DF93CDB7DEB764970FB667
S1130900F894DEBF0FBECDBFFE01319684E1DF0156
S11309101D928A95E9F78091D607813099F4CDDF4D
S11309208091D5078F5F8093D50781E08093D807A6
S11309308DE0E4EDF5E0DE01119601900D928A95CB
S1130940E1F79EC0823099F4B8DF8091D5078F5FBC
S11309508093D50781E08093D9078BE0E1EEF5E041
S1130960DE01119601900D928A95E1F789C08330DA
S113097099F4A3DF8091D5078F5F8093D50781E039
S11309808093DA078CE0ECEEF5E0DE01119601903D
S11309900D928A95E1F774C0843099F48EDF8091CA
S11309A0D5078F5F8093D50781E08093DB0783E1D0
S11309B0E8EFF5E0DE01119601900D928A95E1F7DA
S11309C05FC0853099F479DF8091D5078F5F80937C
S11309D0D50781E08093DC0781E1EBE0F6E0DE01FE
S11309E0119601900D928A95E1F74AC0863099F4E8
S11309F064DF8091D5078F5F8093D50781E0809372
S1130A00DD0780E1ECE1F6E0DE01119601900D9244
S1130A108A95E1F735C0873099F44FDF8091D50787
S1130A208F5F8093D50781E08093DE0780E1ECE25D
S1130A30F6E0DE01119601900D928A95E1F720C04F
S1130A40883099F43ADF8091D5078F5F8093D5077A
S1130A5081E08093DF0784E1EBEBF7E0DE011196A0
S1130A6001900D928A95E1F70BC0893049F481E138
S1130A70ECE3F6E0DE01119601900D928A95E1F720
S1130A80BFE3E2E4FFE0B150E040F040E1F700C032
S1130A900000BED2A9D34DE456E060E080E016D356
S1130AA042E656E060E081E011D3AE014F5F5F4F54
S1130AB060E082E00BD347E756E060E083E006D3D2
S1130AC04CE856E060E084E001D341EA56E060E09F
S1130AD085E0FCD246EB56E060E086E0F7D24DE4D8
S1130AE056E060E087E0F2D28099FECF8091D6078D
S1130AF0893009F097C02FE382E49FE021508040C1
S1130B009040E1F700C0000083D26ED387D687708F
S1130B109078992324F40197886F9F6F01968F5FD3
S1130B20E82FF0E0E952F84F90819111EFCF813036
S1130B3051F489E1EBECF6E0DE01119601900D929F
S1130B408A95E1F753C0823051F482E1E4EEF6E095
S1130B50DE01119601900D928A95E1F747C083302A
S1130B6051F48DE0E6EFF6E0DE01119601900D926E
S1130B708A95E1F73BC0843051F480E1E3E0F7E08B
S1130B80DE01119601900D928A95E1F72FC0853010
S1130B9051F481E1E3E1F7E0DE01119601900D9259
S1130BA08A95E1F723C0863051F482E1E4E2F7E06C
S1130BB0DE01119601900D928A95E1F717C08730F6
S1130BC051F481E1E6E3F7E0DE01119601900D9224
S1130BD08A95E1F70BC0883049F483E1E7E4F7E054
S1130BE0DE01119601900D928A95E1F711D2FCD2A3
S1130BF04AE557E060E080E069D2AE014F5F5F4FA5
S1130C0060E081E063D240E657E060E083E05ED2DA
S1130C10109258081092590810925A0810925B08C2
S1130C20109257081092D6078099FECFA0E2B8E040
S1130C3048EF57E080E090E01D921D92FA01119276
S1130C401192AF019C012E51384FF9011082019687
S1130C508431910589F71092F7071092F607809175
S1130C60D507883009F038C080E0F4D09C01ADECA1
S1130C70BCEC7ED5969587959695879596958795A0
S1130C809093D1078093D0078FE493EC0197F1F709
S1130C9000C00000BDD1A8D248E955E060E080E082
S1130CA015D241E757E060E081E010D248E955E011
S1130CB060E082E00BD244E857E060E083E006D2D3
S1130CC046E957E060E084E001D245EA57E060E09D
S1130CD085E0FCD122DAC8CF64960FB6F894DEBF63
S1130CE00FBECDBFDF91CF91089510DA91D1D5DC3D
S1130CF010DD00DEFCCF1F920F920FB60F9211246D
S1130D000BB60F922F933F934F935F936F937F9301
S1130D108F939F93AF93BF93CF93DF93EF93FF93FF
S1130D2080915C08882309F479C080915E088F5F04
S1130D3080935E0880915E08823309F06FC09091C1
S1130D405D0881E0892780935D0810925E0866D56E
S1130D5064EF71E0FAD40196092E000CAA0BBB0BC8
S1130D608093580890935908A0935A08B0935B084D
S1130D708091D907811111C051D568EE73E0E5D493
S1130D800196092E000CAA0BBB0B80935308909379
S1130D905408A0935508B09356088091D407811144
S1130DA026C08091580890915908A0915A08B09192
S1130DB05B080597A105B105D1F481E0809357083C
S1130DC0A0E2B8E0E8EFF7E080E090E01D921D9229
S1130DD011921192EC01CE51D84F188201968431B0
S1130DE09105A1F71092F7071092F607A7D080910A
S1130DF0530890915408A0915508B091560805974E
S1130E00A105B10559F481E080935208109253086A
S1130E10109254081092550810925608FF91EF91C1
S1130E20DF91CF91BF91AF919F918F917F916F91FE
S1130E305F914F913F912F910F900BBE0F900FBE7A
S1130E400F901F90189516B817B880E888B983ECEE
S1130E5086B9089593EC96B9806487B9369A349B21
S1130E60FECF24B185B116B890E0982F8827820F61
S1130E70911D0895181619065CF420E030E045E051
S1130E804A95F1F700002F5F3F4F82179307B9F798
S1130E900895EF92FF920F931F93CF93DF937B01FB
S1130EA028EE33E0AC01429FC001439F900D529F56
S1130EB0900D112436D46115710581F08B01C5E6BE
S1130EC0D0E0888180618883C701D4DF88818F7EE8
S1130ED08883C701CFDF0150110999F7DF91CF91C2
S1130EE01F910F91FF90EF90089565E670E083E203
S1130EF090E0CFDF6AE570E08EE190E0CADF60E564
S1130F0070E083E290E0C5DF6CE470E08EE190E095
S1130F10C0DF64E470E083E290E0BBDF6DE370E087
S1130F208EE190E0B6DF66E370E083E290E0B1DF4B
S1130F3063E370E08EE190E0ACCF0895CF93C4E01A
S1130F4064E470E083E290E0A4DF65E670E083E2AD
S1130F5090E09FDFC150A1F7CF9108951D9A91E3CE
S1130F609A95F1F700001C981E981F9A8BBB81E399
S1130F708A95F1F700001D9808951D9A91E39A95BA
S1130F80F1F700001C981E9A1F988BBB81E38A9589
S1130F90F1F700001D9808951D9A91E39A95F1F7D1
S1130FA000001C981E9A1F9A8BBB81E38A95F1F767
S1130FB000001D9808951D9A91E39A95F1F7000099
S1130FC01C9A1E981F9A8BBB81E38A95F1F7000047
S1130FD01D9808951D9A91E39A95F1F700001C9AC3
S1130FE01E9A1F988BBB81E38A95F1F700001D9828
S1130FF008951D9A91E39A95F1F700001C9A1E9AA0
S11310001F9A8BBB81E38A95F1F700001D98089520
S1131010CF93DF93D8EB8D2FBFDF80E4BDDFC0E437
S113102080E0E7DFC150E1F7DF5FD03CA1F7DF915B
S1131030CF9108958FE3B0DF80ECAEDF88EBACDFB7
S113104080E4AACF08958093670860936A0C88545B
S1131050A3DF80916A0C8A3038F4982F990F890F96
S1131060880F8C5B7BCF089590E00A97982F990F97
S1131070890F880F805C81CF08951F93CF93DF93EE
S113108090E0EC01CC0FDD1FCC0FDD1F8C0F9D1FFA
S1131090EC01C45EDC4F15E080916A0C8A3018F4D0
S11310A0888189DF02C0888195DF11502196111152
S11310B0F3CF80916A0C8A3018F480E07CDF02C0A0
S11310C080E088DFDF91CF911F910895CF93DF9364
S11310D0EA018093670860936A0CB5DF88818823EE
S11310E081F080916A0C8A3011F480E446DF8991A2
S11310F0C4DF80916A0C8F5F80936A0C88818111B0
S1131100F0CFDF91CF910895CF93C62F885444DF59
S1131110C03420F480E48C0F21DF02C08C2F2DDF3B
S1131120CF910895EF92FF920F931F93CF93803442
S113113008F054C066230CF451C0282F2695269538
S11311402695982F977071F0913071F0923071F06C
S1131150933071F0943071F0953071F0963071F0F5
S113116090E80DC091E00BC092E009C094E007C084
S113117098E005C090E103C090E201C090E4C62F5E
S1131180022F10E0E62EF12CF801F695FE2FEE2743
S1131190F795E795E659F74FEE0DFF1D8081982BE3
S11311A09083822FB1DFC03468F41695102F002786
S11311B0179507950659174FF801EE0DFF1D80810D
S11311C0FADE0CC01695102F0027179507950659BF
S11311D0174FF801EE0DFF1D8081FCDECF911F91AA
S11311E00F91FF90EF900895EAE6F8E02AE63CE0DC
S11311F008C01192E817F907E1F7FC018217930779
S113120021F0CF0180589F4FF4CF0895BF92CF9221
S1131210DF92EF92FF920F931F93CF93DF93082FE8
S113122010E0C42ED12CC016D106A4F0B62EE22EA6
S1131230F12CCB2DD0E0EC16FD063CF06C2F802F6A
S113124071DF2196EC16FD06CCF70F5F1F4FC01619
S1131250D1067CF7DF91CF911F910F91FF90EF9012
S1131260DF90CF90BF9008952F923F924F925F925C
S11312706F927F928F929F92AF92BF92CF92DF92A2
S1131280EF92FF920F931F93CF93DF93CDB7DEB707
S113129029970FB6F894DEBF0FBECDBF8F83C62E3D
S11312A0D12C242F30E03C832B835901AA0CBB1C86
S11312B0A20EB31EC50195958795959587959E8336
S11312C08D837601E81AF90A4C018C0C9D1C8E144E
S11312D09F040CF447C0229F1001239F300C300C54
S11312E0112496013A8329833F81A32EB12CC7018F
S11312F029813A81821B930B889F9001899F300D2D
S1131300300D11242101421A530A052C000C6608E1
S11313107708C301B20122D1B1D120E030E040E02E
S11313205FE38AD0EDD0062F10E0C501801B910B3E
S1131330998788870A0D1B1D0817190764F06E2DFD
S11313408885F0DE288539852F5F3F4F39872887C8
S113135002171307A4F73FEFE31AF30A8E149F044E
S11313600CF0C5CF8F81A82EB12C75012D813E8143
S1131370E21AF30AA20EB31EAE14BF040CF442C068
S11313808B819C81889F4001899F900C900C112433
S11313909F81292E312CC70182199309889F9001BE
S11313A0899F300D300D11242401421A530A052C53
S11313B0000C66087708C301B201D0D05FD120E0E9
S11313C030E040E05FE338D09BD0062F10E0960178
S11313D0201B310B3A8329830C0D1D1D02171307A3
S11313E05CF069818E2D9EDE89819A8101969A83B3
S11313F0898308171907ACF79FEFE91AF90AAE14A5
S1131400BF044CF629960FB6F894DEBF0FBECDBFCD
S1131410DF91CF911F910F91FF90EF90DF90CF90CC
S1131420BF90AF909F908F907F906F905F904F9000
S11314303F902F9008955058BB27AA270ED0E0C0A4
S1131440D1D030F0D6D020F031F49F3F11F41EF407
S1131450C6C00EF4E095E7FBBCC0E92FE2D080F3F0
S1131460BA17620773078407950718F071F49EF59D
S1131470FAC00EF4E0950B2EBA2FA02D0B01B90182
S113148090010C01CA01A0011124FF27591B99F0F6
S1131490593F50F4503E68F11A16F040A22F232F02
S11314A0342F4427585FF3CF469537952795A79552
S11314B0F0405395C9F77EF41F16BA0B620B730BF9
S11314C0840BBAF09150A1F0FF0FBB1F661F771F6A
S11314D0881FC2F70EC0BA0F621F731F841F48F41F
S11314E0879577956795B795F7959E3F08F0B3CFA5
S11314F09395880F08F09927EE0F9795879508958F
S113150098D088F09F5790F0B92F9927B751A0F041
S1131510D1F0660F771F881F991F1AF0BA95C9F783
S113152012C0B13081F09FD0B1E008959CC0672F04
S1131530782F8827B85F39F0B93FCCF38695779533
S11315406795B395D9F73EF490958095709561951C
S11315507F4F8F4F9F4F0895E89409C097FB3EF447
S113156090958095709561957F4F8F4F9F4F9923EC
S1131570A9F0F92F96E9BB279395F695879577956A
S11315806795B795F111F8CFFAF4BB0F11F460FF2A
S11315901BC06F5F7F4F8F4F9F4F16C0882311F082
S11315A096E911C0772321F09EE8872F762F05C096
S11315B0662371F096E8862F70E060E02AF09A9531
S11315C0660F771F881FDAF7880F9695879597F926
S11315D0089597F99F6780E870E060E008959FEFB1
S11315E080EC089500240A941616170618060906B6
S11315F0089500240A941216130614060506089585
S1131600092E0394000C11F4882352F0BB0F40F40C
S1131610BF2B11F460FF04C06F5F7F4F8F4F9F4F4C
S1131620089557FD9058440F551F59F05F3F71F0CE
S11316304795880F97FB991F61F09F3F79F0879535
S11316400895121613061406551FF2CF4695F1DFBE
S113165008C0161617061806991FF1CF869571054E
S1131660610508940895E894BB2766277727CB0182
S113167097F9089511F40EF4B2CF3EC0DADFD0F337
S11316809923D9F3CEF39F57550B87FF43D00024FA
S1131690A0E640EA900180585695979528F4805C1E
S11316A0660F771F881F20F026173707480730F486
S11316B0621B730B840B202931294A2BA69517949E
S11316C00794202531254A2758F7660F771F881F6E
S11316D020F026173707480730F4620B730B840B8E
S11316E0200D311D411DA09581F7B901842F91581A
S11316F0880F9695879508959F3F31F0915020F477
S1131700879577956795B795880F911D96958795D9
S113171097F9089591505040660F771F881FD2F7AC
S11317200895AA1BBB1B51E107C0AA1FBB1FA61724
S1131730B70710F0A61BB70B881F991F5A95A9F776
S113174080959095BC01CD01089597FB072E16F462
S1131750009406D077FD08D0E4DF07FC05D03EF402
S1131760909581959F4F0895709561957F4F089549
S1131770A29FB001B39FC001A39F700D811D1124CE
S1131780911DB29F700D811D1124911D08958F929A
S11317909F92AF92BF92CF92DF92EF92FF92CF933C
S11317A0DF93EC01688179818A819B8161157105E0
S11317B08105910521F464E279ED8BE597E02DE153
S11317C033EF41E050E038D049015A019B01AC01AC
S11317D0A7EAB1E44DD06B017C01ACEEB4EFA501F6
S11317E0940152D0DC01CB018C0D9D1DAE1DBF1D9B
S11317F0B7FF03C00197A109B04888839983AA83DE
S1131800BB839F77DF91CF91FF90EF90DF90CF90D4
S1131810BF90AF909F908F900895B9CF80E091E0F2
S1131820B6CFA0E0B0E08093000190930101A093B3
S11318300201B09303010895052E97FB16F400945A
S11318400FD057FD05D024D007FC02D046F408C0C1
S113185050954095309521953F4F4F4F5F4F0895D8
S113186090958095709561957F4F8F4F9F4F089508
S11318707FDFA59F900DB49F900DA49F800D911DB7
S113188011240895B7FFF4CFF3DF821B930B08955F
S1131890A1E21A2EAA1BBB1BFD010DC0AA1FBB1F70
S11318A0EE1FFF1FA217B307E407F50720F0A21BE2
S11318B0B30BE40BF50B661F771F881F991F1A944F
S11318C069F760957095809590959B01AC01BD0179
S10B18D0CF010895F894FFCF45
S11318D801000000010000010001000100000100F6
S11318E801010101000100010001000000010001E3
S11318F801000100010000000000000001010000D7
S113190800000101000000000101000000000101C5
S113191800000000010100000000010100000000B7
S113192801010000000001010000000001010000A5
S11319380000010100000000010100000000010195
S11319480000000001010000000001010000000087
S11319580101000000000101000000000101000075
S11319680000010100000000010100000000010165
S11319780000000001010000000001010000000057
S11319880101000000000101010100000101010141
S11319980100010101010000010101010000010130
S11319A8010101010101010101010101000000001F
S11319B80101000000000000000000000000000019
S11319C80101000000000000000000000000000009
S11319D801010101010101010000000000000000F3
S11319E801010101010101010000000000000000E3
S11319F801010000010101010101000000000000D3
S1131A0801010000010101010101000001010101BE
S1131A1801010101010101010101000001010101AC
S1131A2801010101010101010101000000000000A0
S1131A380000000000000101010100000000000096
S1131A480000000000000101010100000000000086
S1131A580000000000000101010100000000000076
S1131A680000000000000101010100000000000066
S1131A780000000101010101010100000000000053
S1131A880000000101010101010100000000000043
S1131A980000000101010101010100000000000033
S1131AA80000000101010101010100000000000023
S1131AB80000000101010101010101010000000011
S1131AC80000000101010101010101010000000001
S1131AD800000001010101010101010100000000F1
S1131AE800000001010101010101010100000000E1
S1131AF800000001010101010101000000000000D3
S1131B0800000000000000010101000000000000C6
S1131B1800000000000000010101000000000000B6
S1131B2800000000000000010101000000000000A6
S1131B380001010101000001010100000000000092
S1131B480001010101000001010100000000000082
S1131B580001010000000001010100000000000074
S1131B680001010000000001010100000000000064
S1131B780001010101010101010100000000000050
S1131B880001010101010101010100000000000040
S1131B980000004F00000007000700147F147F14A2
S1131BA8242A7F2A122313086462364955225000D6
S1131BB805030000001C2241000041221C001408F7
S1131BC83E081408083E08080050300000080808B9
S1131BD80808006060000020100804023E514945CE
S1131BE83E00427F400042615149462141454B3104
S1131BF81814127F1027454545393C4A4949300194
S1131C08710905033649494936064949291E0036EA
S1131C18360000005636000008142241001414143B
S1131C281414004122140802015109063249794169
S1131C383E7E1111117E7F494949363E4141412278
S1131C487F4141221C7F494949417F090909013ED5
S1131C584149497A7F0808087F00417F41002040B4
S1131C68413F017F081422417F404040407F020CDD
S1131C78027F7F0408107F3E4141413E7F090909E4
S1131C88063E4151215E7F091929462649494932B0
S1131C9801017F01013F4040403F1F2040201F3F7A
S1131CA84038403F631408146307087008076151FB
S1131CB8494543007F414100020408102000414186
S1131CC87F00040201020440404040400001020435
S1131CD80020545454787F484444383844444420B9
S1131CE8384444487F3854545418087E0901020C77
S1131CF85252523E7F0804047800047D00002040BC
S1131D08443D007F1028440000417F40007C0418B3
S1131D18047C7C0804047838444444387C1414143F
S1131D2808081414187C7C080404084854545420E3
S1131D38043F4440203C4040207C1C2040201C3C64
S1131D484030403C44281028440C5050503C4464D3
S1131D58544C440008364100000077000000413626
S1131D680800080408100820202020203D3D3D3D9F
S1131D783D3D3D3D3D3D3D3D3D3D00202020202055
S1131D88536561686F7273652047616D65005072B1
S1131D9865737320427574746F6E20746F20537466
S1131DA861727400497420637261736865642121E7
S1131DB800536F206C6F6E656C792100497420693B
S1131DC8732066756C6C21005761746572206973A1
S1131DD820736F20646972747921004974206973CF
S1131DE820736F2064697A7A79212100426520730F
S1131DF87765707420617761792E2E0049742065A7
S1131E086174732074726173682E2E004669736856
S1131E18696E6720526F64204B696C6C003D3D3DD0
S1131E283D3D3D3D3D3D3D3D3D3D3D3D3D3D3D3DD6
S1131E383D0020536561686F727365204469656469
S1131E482E2E692D692000202042757420646F6E3F
S1131E58277420776F727279212020005365616896
S1131E686F727365206861732061206368696C64AC
S1131E7800205265737461727420776974682063F2
S1131E8868696C64200020203C3C507265737320A0
S1131E98427574746F6E3E3E202000466973686212
S1131EA86F776C2068617320676C61737320776146
S1131EB86C6C730049742077616E74732066726960
S1131EC8656E642E2E0049742068617465206675F9
S1131ED86C6C004974206C6F766573206672657348
S1131EE86821004974206C6F76657320746F2073C1
S1131EF8746179004974206973206261642073777E
S1131F08696D6D657200446F6E2774206769766524
S1131F1820747261736800446F6E27742068697452
S1131F28207468652077616C6C0048494E543A0007
S1131F383C3C507265737320427574746F6E3E3EF8
S1131F480020202020594F552057494E2121212176
S1131F5821212100596F757220536561686F72736E
S1131F686520576F6E0047414D4520434F4D504CF7
S1131F7845544521005468616E6B20796F7520665D
S1131F886F7220706C6179696E6700466973686264
S1131F986F776C2069732062726F6B656E2E000018
S9030000FC
